curl -s -XPOST 'localhost:8545' --header 'Content-Type: application/json' --data-raw '{"jsonrpc":"2.0","method":"eth_sendRawTransaction","params":["0xf9015880808301e8488080b901086060604052341561000f57600080fd5b60eb8061001d6000396000f300606060405260043610603f576000357c0100000000000000000000000000000000000000000000000000000000900463ffffffff168063c6888fa1146044575b600080fd5b3415604e57600080fd5b606260048080359060200190919050506078565b6040518082815260200191505060405180910390f35b60007f24abdb5865df5079dcc5ac590ff6f01d5c16edbc5fab4e195d9febd1114503da600783026040518082815260200191505060405180910390a16007820290509190505600a165627a7a7230582040383f19d9f65246752244189b02f56e8d0980ed44e7a56c0b200458caad20bb002982052fa09c05a7389284dc02b356ec7dee8a023c5efd3a9d844fa3c481882684b0640866a057e96d0a71a857ed509bb2b7333e78b2408574b8cc7f51238f25c58812662653"],"id":1}' | jq

curl -s -XPOST 'localhost:8545' --header 'Content-Type: application/json' --data-raw '{"jsonrpc":"2.0","method":"eth_sendRawTransaction","params":["0xf885018082c3509499466ed2e37b892a2ee3e9cd55a98b68f5735db280a4c6888fa10000000000000000000000000000000000000000000000000000000000000006820530a03547bcd56e6c6103e78c8c3b34f480108f66ad37282d887033b8c5951f0c70a0a00f5136f6033244a265e1ebaf48cf83d4fdf13f53b468d8fd924c9deb1537dd8d"],"id":2}' | jq

curl -s -XPOST 'localhost:8545' --header 'Content-Type: application/json' --data-raw '{"jsonrpc":"2.0","method":"eth_sendRawTransaction","params":["0xf885028082c3509499466ed2e37b892a2ee3e9cd55a98b68f5735db280a4c6888fa1000000000000000000000000000000000000000000000000000000000000000f82052fa0755ed54e21067723b612e398ec7d03003206810dbaeed51984c9fe0b2e4b62f3a01cd8baf6727d76d40fe197e2e8ba1d198ebff7915571a52f01ef92fc8f21fcf6"],"id":3}' | jq

curl -s -XPOST 'localhost:8545' --header 'Content-Type: application/json' --data-raw '{"jsonrpc":"2.0","method":"eth_call","params":[{"from":"0x658bdf435d810c91414ec09147daa6db62406379","to":"0x99466ed2e37b892a2ee3e9cd55a98b68f5735db2","gas":"0x76c0","gasPrice":"0x0","value":"0x0","input":"0xc6888fa10000000000000000000000000000000000000000000000000000000000000006"}, "latest"],"id":4}' | jq

curl -s -XPOST 'localhost:8545' --header 'Content-Type: application/json' --data-raw '{"jsonrpc":"2.0","method":"eth_getLogs","params":[{"topics":["0x24abdb5865df5079dcc5ac590ff6f01d5c16edbc5fab4e195d9febd1114503da"]}],"id":5}' | jq

curl -s -XPOST 'localhost:8545' --header 'Content-Type: application/json' --data-raw '{"jsonrpc":"2.0","method":"eth_getTransactionCount","params":["0x658Bdf435d810C91414eC09147DAA6DB62406379","latest"],"id":6}' | jq

curl -s -XPOST 'localhost:8545' --header 'Content-Type: application/json' --data-raw '{"jsonrpc":"2.0","method":"eth_getBlockByNumber","params":["0x3",false],"id":7}' | jq

curl -s -XPOST 'localhost:8545' --header 'Content-Type: application/json' --data-raw '{"jsonrpc":"2.0","method":"eth_getTransactionReceipt","params":["0xaae4530246e61ae58479824ab0863f99ca50414d27aec0c269ae6a7cfc4c7f5b"],"id":8}' | jq

curl -s -XPOST 'localhost:8545' --header 'Content-Type: application/json' --data-raw '{"jsonrpc":"2.0","method":"eth_getTransactionByHash","params":["0xaae4530246e61ae58479824ab0863f99ca50414d27aec0c269ae6a7cfc4c7f5b"],"id":9}' | jq

curl -s -XPOST 'localhost:8545' --header 'Content-Type: application/json' --data-raw '{"jsonrpc":"2.0","method":"eth_getBalance","params":["0x000000000000000000000002f239b1ccbbaa9977","latest"],"id":10}' | jq

curl -s -XPOST 'localhost:8545' --header 'Content-Type: application/json' --data-raw '{"jsonrpc":"2.0","method":"eth_getBlockByHash","params":["0xf0cb48c7561fb6cab8b065b12bf4cf966a6840b41db81055bf4cd98d2354228f",false],"id":1}' | jq

curl -s -XPOST 'localhost:8545' --header 'Content-Type: application/json' --data-raw '{"jsonrpc":"2.0","method":"eth_getBlockTransactionCountByHash","params":["0xb47d74ea64221eb941490bdc0c9a404dacd0a8573379a45c992ac60ee3e83c3c"],"id":12}' | jq

curl -s -XPOST 'localhost:8545' --header 'Content-Type: application/json' --data-raw '{"jsonrpc":"2.0","method":"eth_getBlockTransactionCountByNumber","params":["0x2"],"id":13}' | jq

curl -s -XPOST 'localhost:8545' --header 'Content-Type: application/json' --data-raw '{"jsonrpc":"2.0","method":"eth_getTransactionByBlockHashAndIndex","params":["0xb47d74ea64221eb941490bdc0c9a404dacd0a8573379a45c992ac60ee3e83c3c","0x0"],"id":1}' | jq

curl -s -XPOST 'localhost:8545' --header 'Content-Type: application/json' --data-raw '{"jsonrpc":"2.0","method":"eth_getTransactionByBlockNumberAndIndex","params":["0x3","0x0"],"id":1}' | jq

curl -s -XPOST 'localhost:8545' --header 'Content-Type: application/json' --data-raw '{"jsonrpc":"2.0","method":"eth_getBlockReceipts","params":["0x3"],"id":1}' | jq

curl -s -XPOST 'localhost:8545' --header 'Content-Type: application/json' --data-raw '{"jsonrpc":"2.0","method":"eth_blockNumber","params":[],"id":1}' | jq

curl -s -XPOST 'localhost:8545' --header 'Content-Type: application/json' --data-raw '{"jsonrpc":"2.0","method":"eth_getCode","params":["0x99466ED2E37B892A2Ee3E9CD55a98b68f5735db2","latest"],"id":1}' | jq


curl -s -XPOST https://previewnet.evm.nodes.onflow.org --header 'Content-Type: application/json' --data-raw '{"jsonrpc":"2.0","method":"net_version","params":[],"id":1}' | jq

curl -s -XPOST https://previewnet.evm.nodes.onflow.org --header 'Content-Type: application/json' --data-raw '{"jsonrpc":"2.0","method":"eth_blockNumber","params":[],"id":1}' | jq

curl -s -XPOST https://previewnet.evm.nodes.onflow.org --header 'Content-Type: application/json' --data-raw '{"jsonrpc":"2.0","method":"eth_sendRawTransaction","params":["0xb9015f02f9015b82029a80808083124f808080b901086060604052341561000f57600080fd5b60eb8061001d6000396000f300606060405260043610603f576000357c0100000000000000000000000000000000000000000000000000000000900463ffffffff168063c6888fa1146044575b600080fd5b3415604e57600080fd5b606260048080359060200190919050506078565b6040518082815260200191505060405180910390f35b60007f24abdb5865df5079dcc5ac590ff6f01d5c16edbc5fab4e195d9febd1114503da600783026040518082815260200191505060405180910390a16007820290509190505600a165627a7a7230582040383f19d9f65246752244189b02f56e8d0980ed44e7a56c0b200458caad20bb0029c001a0c0dfc8ed68e5e2522006ac4dc7b1c0c783328311b3e860658be1bab16728ed98a048ef3ec7ff2f13ebda39f01526254e3c7ab64feb0c574703555dba316b6a88e3"],"id":1}' | jq

curl -s -XPOST https://previewnet.evm.nodes.onflow.org --header 'Content-Type: application/json' --data-raw '{"jsonrpc":"2.0","method":"eth_sendRawTransaction","params":["0xb88c02f88982029a01808083124f809499466ed2e37b892a2ee3e9cd55a98b68f5735db280a4c6888fa10000000000000000000000000000000000000000000000000000000000000006c001a0f84168f821b427dc158c4d8083bdc4b43e178cf0977a2c5eefbcbedcc4e351b0a066a747a38c6c266b9dc2136523cef04395918de37773db63d574aabde59c12eb"],"id":2}' | jq

curl -s -XPOST https://previewnet.evm.nodes.onflow.org --header 'Content-Type: application/json' --data-raw '{"jsonrpc":"2.0","method":"eth_call","params":[{"from":"0x658bdf435d810c91414ec09147daa6db62406379","to":"0x99466ed2e37b892a2ee3e9cd55a98b68f5735db2","gas":"0x76c0","gasPrice":"0x9184e72a000","value":"0x0","input":"0xc6888fa10000000000000000000000000000000000000000000000000000000000000006"}],"id":4}' | jq

curl -s -XPOST 'localhost:8545' --header 'Content-Type: application/json' --data-raw '{"jsonrpc":"2.0","id":1,"method":"eth_estimateGas","params":[{"from":"0xb60e8dd61c5d32be8058bb8eb970870f07233155","gas":"0x276c0","gasPrice":"0x0","value":"0x0","input":"0x6060604052341561000f57600080fd5b60eb8061001d6000396000f300606060405260043610603f576000357c0100000000000000000000000000000000000000000000000000000000900463ffffffff168063c6888fa1146044575b600080fd5b3415604e57600080fd5b606260048080359060200190919050506078565b6040518082815260200191505060405180910390f35b60007f24abdb5865df5079dcc5ac590ff6f01d5c16edbc5fab4e195d9febd1114503da600783026040518082815260200191505060405180910390a16007820290509190505600a165627a7a7230582040383f19d9f65246752244189b02f56e8d0980ed44e7a56c0b200458caad20bb0029"}]}'


curl -s -XPOST https://previewnet.evm.nodes.onflow.org --header 'Content-Type: application/json' --data-raw '{"jsonrpc":"2.0","method":"eth_blockNumber","params":[],"id":1}' | jq

curl -s -XPOST https://previewnet.evm.nodes.onflow.org --header 'Content-Type: application/json' --data-raw '{"jsonrpc":"2.0","method":"eth_syncing","params":[],"id":1}' | jq


curl -s -XPOST https://previewnet.evm.nodes.onflow.org --header 'Content-Type: application/json' --data-raw '{"jsonrpc":"2.0","method":"eth_sendRawTransaction","params":["0xf9015880808301e8488080b901086060604052341561000f57600080fd5b60eb8061001d6000396000f300606060405260043610603f576000357c0100000000000000000000000000000000000000000000000000000000900463ffffffff168063c6888fa1146044575b600080fd5b3415604e57600080fd5b606260048080359060200190919050506078565b6040518082815260200191505060405180910390f35b60007f24abdb5865df5079dcc5ac590ff6f01d5c16edbc5fab4e195d9febd1114503da600783026040518082815260200191505060405180910390a16007820290509190505600a165627a7a7230582040383f19d9f65246752244189b02f56e8d0980ed44e7a56c0b200458caad20bb002982052fa09c05a7389284dc02b356ec7dee8a023c5efd3a9d844fa3c481882684b0640866a057e96d0a71a857ed509bb2b7333e78b2408574b8cc7f51238f25c58812662653"],"id":1}' | jq

curl -s -XPOST https://previewnet.evm.nodes.onflow.org --header 'Content-Type: application/json' --data-raw '{"jsonrpc":"2.0","method":"eth_sendRawTransaction","params":["0xf885018082c3509499466ed2e37b892a2ee3e9cd55a98b68f5735db280a4c6888fa10000000000000000000000000000000000000000000000000000000000000006820530a03547bcd56e6c6103e78c8c3b34f480108f66ad37282d887033b8c5951f0c70a0a00f5136f6033244a265e1ebaf48cf83d4fdf13f53b468d8fd924c9deb1537dd8d"],"id":2}' | jq

curl -s -XPOST https://previewnet.evm.nodes.onflow.org --header 'Content-Type: application/json' --data-raw '{"jsonrpc":"2.0","method":"eth_getTransactionReceipt","params":["0xe414f90fea2aebd75e8c0b3b6a4a0c9928e86c16ea724343d884f40bfe2c4c6b"],"id":8}' | jq

curl -s -XPOST https://previewnet.evm.nodes.onflow.org --header 'Content-Type: application/json' --data-raw '{"jsonrpc":"2.0","method":"eth_getTransactionReceipt","params":["0x9da005357b95da4b5c485c08f2ac41ecfe868ead4e6856b909a45dc27a6fcf7d"],"id":8}' | jq

curl -s -XPOST https://previewnet.evm.nodes.onflow.org --header 'Content-Type: application/json' --data-raw '{"jsonrpc":"2.0","id":1,"method":"eth_estimateGas","params":[{"from":"0xb60e8dd61c5d32be8058bb8eb970870f07233155","gasPrice":"0x3635c9adc5dea000001","input":"0x6060604052341561000f57600080fd5b60eb8061001d6000396000f300606060405260043610603f576000357c0100000000000000000000000000000000000000000000000000000000900463ffffffff168063c6888fa1146044575b600080fd5b3415604e57600080fd5b606260048080359060200190919050506078565b6040518082815260200191505060405180910390f35b60007f24abdb5865df5079dcc5ac590ff6f01d5c16edbc5fab4e195d9febd1114503da600783026040518082815260200191505060405180910390a16007820290509190505600a165627a7a7230582040383f19d9f65246752244189b02f56e8d0980ed44e7a56c0b200458caad20bb0029"}]}'

curl -s -XPOST https://previewnet.evm.nodes.onflow.org --header 'Content-Type: application/json' --data-raw '{"jsonrpc":"2.0","method":"eth_getBalance","params":["0xa94f5374Fce5edBC8E2a8697C15331677e6EbF0B","latest"],"id":10}' | jq

# eth_blockNumber
curl -s -XPOST 'localhost:8545' --header 'Content-Type: application/json' --data-raw '{"jsonrpc":"2.0","method":"eth_blockNumber","params":[],"id":1}' | jq

# eth_syncing
curl -s -XPOST 'localhost:8545' --header 'Content-Type: application/json' --data-raw '{"jsonrpc":"2.0","method":"eth_syncing","params":[],"id":1}' | jq

# eth_getBlockByNumber
curl -s -XPOST 'localhost:8545' --header 'Content-Type: application/json' --data-raw '{"jsonrpc":"2.0","method":"eth_getBlockByNumber","params":["0x20",true],"id":7}' | jq

# eth_getBlockByHash
curl -s -XPOST 'localhost:8545' --header 'Content-Type: application/json' --data-raw '{"jsonrpc":"2.0","method":"eth_getBlockByHash","params":["0xf0cb48c7561fb6cab8b065b12bf4cf966a6840b41db81055bf4cd98d2354228f",false],"id":1}' | jq

# eth_getTransactionReceipt
curl -s -XPOST 'localhost:8545' --header 'Content-Type: application/json' --data-raw '{"jsonrpc":"2.0","method":"eth_getTransactionReceipt","params":["0xaae4530246e61ae58479824ab0863f99ca50414d27aec0c269ae6a7cfc4c7f5b"],"id":8}' | jq

# eth_getTransactionByHash
curl -s -XPOST 'localhost:8545' --header 'Content-Type: application/json' --data-raw '{"jsonrpc":"2.0","method":"eth_getTransactionByHash","params":["0xaae4530246e61ae58479824ab0863f99ca50414d27aec0c269ae6a7cfc4c7f5b"],"id":9}' | jq

curl -s -XPOST 'localhost:8545' --header 'Content-Type: application/json' --data-raw '{"jsonrpc":"2.0","id":1,"method":"eth_call","params":[{"from":"0xb60e8dd61c5d32be8058bb8eb970870f07233155","gas":"0x276c0","gasPrice":"0xabc0","value":"0x0","input":"0x6060604052341561000f57600080fd5b60eb8061001d6000396000f300606060405260043610603f576000357c0100000000000000000000000000000000000000000000000000000000900463ffffffff168063c6888fa1146044575b600080fd5b3415604e57600080fd5b606260048080359060200190919050506078565b6040518082815260200191505060405180910390f35b60007f24abdb5865df5079dcc5ac590ff6f01d5c16edbc5fab4e195d9febd1114503da600783026040518082815260200191505060405180910390a16007820290509190505600a165627a7a7230582040383f19d9f65246752244189b02f56e8d0980ed44e7a56c0b200458caad20bb0029"}]}'

# eth_feeHistory
curl -s -XPOST 'localhost:8545' --header 'Content-Type: application/json' --data-raw '{"jsonrpc":"2.0","method":"eth_feeHistory","params":["0xa","latest",[20]],"id":9}' | jq

# eth_estimateGas
curl -s -XPOST 'localhost:8545' --header 'Content-Type: application/json' --data-raw '{"jsonrpc":"2.0","id":1,"method":"eth_estimateGas","params":[{"data":"0x608060405234801561001057600080fd5b50610833806100206000396000f3fe60806040526004361061003f5760003560e01c806308508b8f1461004457806364e030871461009857806385cf97ab14610138578063a49a7c90146101bc575b600080fd5b34801561005057600080fd5b506100846004803603602081101561006757600080fd5b503573ffffffffffffffffffffffffffffffffffffffff166101ec565b604080519115158252519081900360200190f35b61010f600480360360408110156100ae57600080fd5b813591908101906040810160208201356401000000008111156100d057600080fd5b8201836020820111156100e257600080fd5b8035906020019184600183028401116401000000008311171561010457600080fd5b509092509050610217565b6040805173ffffffffffffffffffffffffffffffffffffffff9092168252519081900360200190f35b34801561014457600080fd5b5061010f6004803603604081101561015b57600080fd5b8135919081019060408101602082013564010000000081111561017d57600080fd5b82018360208201111561018f57600080fd5b803590602001918460018302840111640100000000831117156101b157600080fd5b509092509050610592565b3480156101c857600080fd5b5061010f600480360360408110156101df57600080fd5b508035906020013561069e565b73ffffffffffffffffffffffffffffffffffffffff1660009081526020819052604090205460ff1690565b600083606081901c33148061024c57507fffffffffffffffffffffffffffffffffffffffff0000000000000000000000008116155b6102a1576040517f08c379a00000000000000000000000000000000000000000000000000000000081526004018080602001828103825260458152602001806107746045913960600191505060405180910390fd5b606084848080601f0160208091040260200160405190810160405280939291908181526020018383808284376000920182905250604051855195965090943094508b93508692506020918201918291908401908083835b6020831061033557805182527fffffffffffffffffffffffffffffffffffffffffffffffffffffffffffffffe090920191602091820191016102f8565b51815160209384036101000a7fffffffffffffffffffffffffffffffffffffffffffffffffffffffffffffffff018019909216911617905260408051929094018281037fffffffffffffffffffffffffffffffffffffffffffffffffffffffffffffffe00183528085528251928201929092207fff000000000000000000000000000000000000000000000000000000000000008383015260609890981b7fffffffffffffffffffffffffffffffffffffffff00000000000000000000000016602183015260358201969096526055808201979097528251808203909701875260750182525084519484019490942073ffffffffffffffffffffffffffffffffffffffff81166000908152938490529390922054929350505060ff16156104a7576040517f08c379a000000000000000000000000000000000000000000000000000000000815260040180806020018281038252603f815260200180610735603f913960400191505060405180910390fd5b81602001825188818334f5955050508073ffffffffffffffffffffffffffffffffffffffff168473ffffffffffffffffffffffffffffffffffffffff161461053a576040517f08c379a00000000000000000000000000000000000000000000000000000000081526004018080602001828103825260468152602001806107b96046913960600191505060405180910390fd5b50505073ffffffffffffffffffffffffffffffffffffffff8116600090815260208190526040902080547fffffffffffffffffffffffffffffffffffffffffffffffffffffffffffffff001660011790559392505050565b6000308484846040516020018083838082843760408051919093018181037fffffffffffffffffffffffffffffffffffffffffffffffffffffffffffffffe001825280845281516020928301207fff000000000000000000000000000000000000000000000000000000000000008383015260609990991b7fffffffffffffffffffffffffffffffffffffffff000000000000000000000000166021820152603581019790975260558088019890985282518088039098018852607590960182525085519585019590952073ffffffffffffffffffffffffffffffffffffffff81166000908152948590529490932054939450505060ff909116159050610697575060005b9392505050565b604080517fff000000000000000000000000000000000000000000000000000000000000006020808301919091523060601b6021830152603582018590526055808301859052835180840390910181526075909201835281519181019190912073ffffffffffffffffffffffffffffffffffffffff81166000908152918290529190205460ff161561072e575060005b9291505056fe496e76616c696420636f6e7472616374206372656174696f6e202d20636f6e74726163742068617320616c7265616479206265656e206465706c6f7965642e496e76616c69642073616c74202d206669727374203230206279746573206f66207468652073616c74206d757374206d617463682063616c6c696e6720616464726573732e4661696c656420746f206465706c6f7920636f6e7472616374207573696e672070726f76696465642073616c7420616e6420696e697469616c697a6174696f6e20636f64652ea265627a7a723058202bdc55310d97c4088f18acf04253db593f0914059f0c781a9df3624dcef0d1cf64736f6c634300050a0032","from":"0x3ca7971b5be71bcd2db6cedf667f0ae5e5022fed","gasPrice":"0x0","nonce":"0x0","to":"0x7a0d94f55792c434d74a40883c6ed8545e406d12"},"latest"]}'

curl -s -XPOST 'localhost:8545' --header 'Content-Type: application/json' --data-raw '{"jsonrpc":"2.0","id":1,"method":"eth_call","params":[{"data":"0x608060405234801561001057600080fd5b50610833806100206000396000f3fe60806040526004361061003f5760003560e01c806308508b8f1461004457806364e030871461009857806385cf97ab14610138578063a49a7c90146101bc575b600080fd5b34801561005057600080fd5b506100846004803603602081101561006757600080fd5b503573ffffffffffffffffffffffffffffffffffffffff166101ec565b604080519115158252519081900360200190f35b61010f600480360360408110156100ae57600080fd5b813591908101906040810160208201356401000000008111156100d057600080fd5b8201836020820111156100e257600080fd5b8035906020019184600183028401116401000000008311171561010457600080fd5b509092509050610217565b6040805173ffffffffffffffffffffffffffffffffffffffff9092168252519081900360200190f35b34801561014457600080fd5b5061010f6004803603604081101561015b57600080fd5b8135919081019060408101602082013564010000000081111561017d57600080fd5b82018360208201111561018f57600080fd5b803590602001918460018302840111640100000000831117156101b157600080fd5b509092509050610592565b3480156101c857600080fd5b5061010f600480360360408110156101df57600080fd5b508035906020013561069e565b73ffffffffffffffffffffffffffffffffffffffff1660009081526020819052604090205460ff1690565b600083606081901c33148061024c57507fffffffffffffffffffffffffffffffffffffffff0000000000000000000000008116155b6102a1576040517f08c379a00000000000000000000000000000000000000000000000000000000081526004018080602001828103825260458152602001806107746045913960600191505060405180910390fd5b606084848080601f0160208091040260200160405190810160405280939291908181526020018383808284376000920182905250604051855195965090943094508b93508692506020918201918291908401908083835b6020831061033557805182527fffffffffffffffffffffffffffffffffffffffffffffffffffffffffffffffe090920191602091820191016102f8565b51815160209384036101000a7fffffffffffffffffffffffffffffffffffffffffffffffffffffffffffffffff018019909216911617905260408051929094018281037fffffffffffffffffffffffffffffffffffffffffffffffffffffffffffffffe00183528085528251928201929092207fff000000000000000000000000000000000000000000000000000000000000008383015260609890981b7fffffffffffffffffffffffffffffffffffffffff00000000000000000000000016602183015260358201969096526055808201979097528251808203909701875260750182525084519484019490942073ffffffffffffffffffffffffffffffffffffffff81166000908152938490529390922054929350505060ff16156104a7576040517f08c379a000000000000000000000000000000000000000000000000000000000815260040180806020018281038252603f815260200180610735603f913960400191505060405180910390fd5b81602001825188818334f5955050508073ffffffffffffffffffffffffffffffffffffffff168473ffffffffffffffffffffffffffffffffffffffff161461053a576040517f08c379a00000000000000000000000000000000000000000000000000000000081526004018080602001828103825260468152602001806107b96046913960600191505060405180910390fd5b50505073ffffffffffffffffffffffffffffffffffffffff8116600090815260208190526040902080547fffffffffffffffffffffffffffffffffffffffffffffffffffffffffffffff001660011790559392505050565b6000308484846040516020018083838082843760408051919093018181037fffffffffffffffffffffffffffffffffffffffffffffffffffffffffffffffe001825280845281516020928301207fff000000000000000000000000000000000000000000000000000000000000008383015260609990991b7fffffffffffffffffffffffffffffffffffffffff000000000000000000000000166021820152603581019790975260558088019890985282518088039098018852607590960182525085519585019590952073ffffffffffffffffffffffffffffffffffffffff81166000908152948590529490932054939450505060ff909116159050610697575060005b9392505050565b604080517fff000000000000000000000000000000000000000000000000000000000000006020808301919091523060601b6021830152603582018590526055808301859052835180840390910181526075909201835281519181019190912073ffffffffffffffffffffffffffffffffffffffff81166000908152918290529190205460ff161561072e575060005b9291505056fe496e76616c696420636f6e7472616374206372656174696f6e202d20636f6e74726163742068617320616c7265616479206265656e206465706c6f7965642e496e76616c69642073616c74202d206669727374203230206279746573206f66207468652073616c74206d757374206d617463682063616c6c696e6720616464726573732e4661696c656420746f206465706c6f7920636f6e7472616374207573696e672070726f76696465642073616c7420616e6420696e697469616c697a6174696f6e20636f64652ea265627a7a723058202bdc55310d97c4088f18acf04253db593f0914059f0c781a9df3624dcef0d1cf64736f6c634300050a0032","from":"0x3ca7971b5be71bcd2db6cedf667f0ae5e5022fed","gas":"0x7be07","gasPrice":"0x0","nonce":"0x0","to":"0x7a0d94f55792c434d74a40883c6ed8545e406d12","type":"0x00","value":"0x0"},"latest"]}'

